:0400000007EF00F016
:0A00080042825EED08F0E7EF0EF013
:101000000020202020202020202020202020202000
:1010100020002024242424242424242424242424BC
:1010200024200020243E5665727920205361666595
:101030003C24200020456E7465722070696E3A5819
:10104000585858200020546865206E6577207069D4
:101050006E206973200053616665206973206F708C
:10106000656E696E6721002424242424242424240A
:101070002424242424242400547279206166746575
:10108000722032307365632E002053657420612016
:1010900070696E3A0020456E7465722070696E3A10
:1010A000002020417474656D7074733A002D2D2DED
:1010B000202020002020202D2D2D00000600FACF1A
:1010C00005F0FBCF06F0E9CF07F0EACF08F0E1CF5B
:1010D00009F0E2CF0AF0D9CF0BF0DACF0CF0F3CF62
:1010E0000DF0F4CF0EF0F6CF0FF0F7CF10F0F8CFF1
:1010F00011F0F5CF12F042C013F043C014F044C019
:1011000015F045C016F0F2B6F2A00BD081AC4188C4
:1011100081BE05D0030E3F184010D8B4418AF2902A
:1011200014D1F2BAF2A479D0F2943D06D8A03E06CA
:101130003D503E10D8A41FD0270E3F24D96E000E7C
:101140004020DA6E230EDE18D8A408D0270E3F24E4
:10115000D96E000E4020DA6E200E07D0270E3F24F5
:10116000D96E000E4020DA6E230EDF6E020E3E6E48
:10117000710E3D6E41823B06D8A03C063B503C10B0
:10118000D8A405D0C282000E3C6EFA0E3B6E41AA76
:101190003FD000019C07D8A09D079C519D11D8A469
:1011A00037D09BBF06D09B5111E1050E9A5DD8B098
:1011B0000DD041B602D0418601D04196040E9D6FFC
:1011C000E20E9C6F9A4B9B2B419422D0000E186E1E
:1011D000000E176E18500FE1040E175CD8B00BD03C
:1011E000270E1724D96E000E1820DA6E230EDF6E3C
:1011F000174A182AEFD7000E2E6E000E2D6E000E25
:10120000306E010E2F6E419A000E406E000E3F6E42
:10121000000ED76E830ED66E98D09DB09EA031D0B2
:101220009E902F043010D8A427D000019607D8A094
:10123000970796519711D8A41FD02F043010D8A427
:1012400003D03106D8A032062D042E10D8A410D019
:101250009807D8A0990798519911D8A409D0000EE1
:10126000996F140E986F000E2E6E000E2D6E419029
:10127000000E976F140E966F0B0ECF6EDC0ECE6EB7
:1012800064D09DBC9EAC61D09E9CC3CF39F0C4CFCE
:101290003AF037C003F038C004F0031E041E034ABE
:1012A000042A3950032400019E6F3A5004209F6F96
:1012B00039C003F03AC004F0031E041E034A042A96
:1012C00037500324356E38500420366E372803E13A
:1012D0003828D8B436D09FBF06D09F510CE10A0EF3
:1012E0009E5DD8B008D036BE2CD0365004E10A0E30
:1012F000355CD8A026D039C033F03AC034F02F5036
:101300003010D8A40BD0FAEC0BF0D8903F34D96E43
:101310004034DA6E8E0ED926000E0ED02F04301017
:10132000D8A40FD0FAEC0BF0D8903F34D96E4034EB
:10133000DA6E860ED926000EDA2201C0DEFF02C068
:10134000DDFF39C037F03AC038F016C045F015C09F
:1013500044F014C043F013C042F012C0F5FF11C0B6
:10136000F8FF10C0F7FF0FC0F6FF0EC0F4FF0DC06E
:10137000F3FF0CC0DAFF0BC0D9FF0AC0E2FF09C0BF
:10138000E1FF08C0EAFF07C0E9FF06C0FBFF05C098
:10139000FAFF42921100000E0001816F000E806F73
:1013A00081BF06D0815110E1050E805DD8B00CD010
:1013B000C30E266ECD0EE82EFED7262EFCD700F0EB
:1013C0000001804B812BECD780EC0CF0E4EC0FF0AB
:1013D000AFEC0AF0B2EC0FF065EC0EF0B2EC0FF0EF
:1013E00094EC0EF0C280F28EF28CD58ECD802F5010
:1013F0003010D8A432D041BA06D041B846EC0FF034
:10140000ACEC0DF0F4D741AAF2D7000E1A6E0A0E1A
:10141000196E000E1C6E0A0E1B6E000E1E6E0A0E5A
:101420001D6E000E206E0A0E1F6EFBEC0CF041A428
:10143000F3EC0DF0000E1A6E0A0E196E000E1C6E03
:101440000A0E1B6E000E1E6E0A0E1D6E000E206E22
:101450000A0E1F6EFBEC0CF0CAD75CEC0DF041BA23
:101460000CD02D502E10D8A408D041B82EEC0FF07F
:1014700041A2BDD761EC0BF0BAD741AAB8D735EC81
:101480000EF019041A10D8A407D0C5EC0FF0F29E84
:10149000F29C5CEC0DF0FDD72B502C10D8B428D06A
:1014A000419A000E0001836F000E826F83511CE190
:1014B000040E825DD8B018D0270E8225D96E000E9A
:1014C0008321DA6E230EDF6ED8908235D96E833594
:1014D000DA6E860ED926000EDA22FF0EDE6EFF0EC1
:1014E000DD6E824B832BE2D72B06D8A02C0632D0A0
:1014F0002B502C10D8A42ED0000E0001856F000EAA
:10150000846F85511CE1040E845DD8B018D0270E7D
:101510008425D96E000E8521DA6E230EDF6ED890F9
:101520008435D96E8535DA6E860ED926000EDA221C
:10153000FF0EDE6EFF0EDD6E844B852BE2D79FEC37
:101540000FF0000E2E6E010E2D6E419A000E2C6EC5
:10155000020E2B6E000E406E000E3F6E48D799882B
:10156000300EC26E000EC16E8F0EC06E9D8C9E9CA2
:10157000F28AF294440ED56E000ED76E830ED66EAC
:101580009D80B00ECD6E0B0ECF6EDC0ECE6E938CAA
:10159000938E939A93989396939493929390000E2C
:1015A000816E000E8A6EF286F290F19EF19C968218
:1015B000000E9A6E000E916E000E906E9950F00B18
:1015C000996E000E406E000E3F6E000E1A6E000EF9
:1015D000196E1A500FE1040E195CD8B00BD0270E0B
:1015E0001924D96E000E1A20DA6E230EDF6E194A06
:1015F0001A2AEFD7000E1C6E000E1B6E1C5023E142
:101600001ED0D8901B34D96E1C34DA6E8E0ED926BB
:10161000000EDA22FF0EDE6EFF0EDD6ED8901B3458
:10162000D96E1C34DA6E860ED926000EDA22FF0E31
:10163000DE6EFF0EDD6E1B4A1C2A1C5004E1040EF8
:101640001B5CD8A0DED7419A33683468020E3E6E28
:10165000710E3D6E000E3C6EFA0E3B6E040E0001E4
:101660009D6FE20E9C6F39683A6837683868000EE3
:10167000366E000E356E000E9F6F000E9E6F419805
:101680004196000E9B6F000E9A6F000E976F140E1E
:10169000966F000E326E780E316E000E996F140E3A
:1016A000986F000E2E6E000E2D6E000E306E000E26
:1016B0002F6E000E2C6E020E2B6E419241944190C3
:1016C000120041B05AD05CEC0DF0800E74EC0FF0BB
:1016D000950E1A6E100E1B6E8AEC0FF08B0E74ECCA
:1016E0000FF086C019F087C01AF027C01BF0FBEC82
:1016F0000FF05EEC0FF08C0E74EC0FF088C019F058
:1017000089C01AF028C01BF0FBEC0FF05EEC0FF064
:101710008D0E74EC0FF08AC019F08BC01AF029C03E
:101720001BF0FBEC0FF05EEC0FF08E0E74EC0FF084
:101730008CC019F08DC01AF02AC01BF0FBEC0FF022
:101740005EEC0FF0C00E74EC0FF0A10E1A6E100ECE
:101750001B6E8AEC0FF0CB0E74EC0FF02B50300F99
:101760005EEC0FF0CC0E74EC0FF00D0E1A6E100E36
:101770001B6E8AEC0FF041803BD08B0E74EC0FF0A7
:1017800086C019F087C01AF027C01BF0FBEC0FF0E1
:101790005EEC0FF08C0E74EC0FF088C019F089C06D
:1017A0001AF028C01BF0FBEC0FF05EEC0FF08D0E72
:1017B00074EC0FF08AC019F08BC01AF029C01BF02E
:1017C000FBEC0FF05EEC0FF08E0E74EC0FF08CC0A3
:1017D00019F08DC01AF02AC01BF0FBEC0FF05EEC84
:1017E0000FF0CB0E74EC0FF02B50300F5EEC0FF0BF
:1017F0004192120034BE06D0345009E1640E335CCD
:10180000D8B005D0000E026E000E016E120034BE7C
:1018100006D0345009E1C80E335CD8B005D0000EB4
:10182000026E010E016E120034BE06D02C0E335C27
:10183000010E3458D8B005D0000E026E020E016EB3
:10184000120034BE06D0900E335C010E3458D8B06E
:1018500005D0000E026E030E016E120034BE06D0DB
:10186000F40E335C010E3458D8B005D0000E026E71
:10187000040E016E120034BE06D0580E335C020E08
:101880003458D8B005D0000E026E050E016E12005D
:1018900034BE06D0BC0E335C020E3458D8B005D02E
:1018A000000E026E060E016E120034BE06D0200E2F
:1018B000335C030E3458D8B005D0000E026E070E0C
:1018C000016E120034BE06D0840E335C030E345811
:1018D000D8B005D0000E026E080E016E120034BEA4
:1018E00005D03304040E3458D8B005D0000E026E73
:1018F000090E016E1200000E026E000E016E120043
:10190000000E926E000E946E000E966E000E976E94
:10191000000E986E000E996E000E9A6E000E806E8C
:10192000000E826E000E846E000E856E000E866EB6
:10193000000E876E000E886E8A9A8A948C988C9A14
:101940008C9C8C9E939A93949598959A959C959E31
:101950008A9A8A94C30E1A6ECD0EE82EFED71A2EDE
:10196000FCD700F0C30E1A6ECD0EE82EFED71A2E4D
:10197000FCD700F00F0E8316300E8312F0EC0FF040
:101980004E0E1A6EEB0EE82EFED71A2EFCD700F084
:101990000F0E8316300E8312F0EC0FF0040E1A6E49
:1019A000E40EE82EFED71A2EFCD700D00F0E8316B9
:1019B000300E8312F0EC0FF01A0E1A6EF80EE82EAD
:1019C000FED71A2EFCD700D00F0E8316838AF0ECB8
:1019D0000FF01A0E1A6EF80EE82EFED71A2EFCD74C
:1019E00000D02C0E74EC0FF00C0E74EC0FF0010E06
:1019F00074EC0FF012009050F00B906E20EEA0F0FF
:101A000010EE60F0170EDBCFE3FFE806FCE2D890A3
:101A10001F34D96E2034DA6E600ED926000EDA2219
:101A2000DF50916E9086070E216E7D0EE82EFED758
:101A3000212EFCD700F09096D8901D34D96E1E341C
:101A4000DA6E600ED926000EDA22DF50916E908495
:101A5000070E216E7D0EE82EFED7212EFCD700F05A
:101A60009094D8901B34D96E1C34DA6E600ED9264F
:101A7000000EDA22DF50916E9082070E216E7D0EED
:101A8000E82EFED7212EFCD700F09092D890193482
:101A9000D96E1A34DA6E600ED926000EDA22DF50C3
:101AA000916E9080070E216E7D0EE82EFED7212EBE
:101AB000FCD700F09090120031503210D8B4FF00E3
:101AC00031C020F032C021F0000E236E0A0E226ECB
:101AD0000DEC0FF020C078F021C079F0000E1C6EE4
:101AE0000A0E1B6E31C019F032C01AF0BEEC0EF0B7
:101AF00019C020F01AC021F0000E236E0A0E226ECB
:101B00000DEC0FF020C07AF021C07BF031C019F04D
:101B100032C01AF0000E1C6E640E1B6EBEEC0EF08E
:101B200019C07CF01AC07DF0000E00017F6F000E1E
:101B30007E6F7EC019F07FC01AF07CC01BF07DC0A4
:101B40001CF07AC01DF07BC01EF078C01FF079C079
:101B500020F0FBEC0CF01200800E74EC0FF0890EFC
:101B60001A6E100E1B6E8AEC0FF08B0E74EC0FF0D9
:101B70008EC019F08FC01AF027C01BF0FBEC0FF0DD
:101B80005EEC0FF08C0E74EC0FF090C019F091C069
:101B90001AF028C01BF0FBEC0FF05EEC0FF08D0E7E
:101BA00074EC0FF092C019F093C01AF029C01BF02A
:101BB000FBEC0FF05EEC0FF08E0E74EC0FF094C0A7
:101BC00019F095C01AF02AC01BF0FBEC0FF05EEC88
:101BD0000FF0C00E74EC0FF0010E1A6E100E1B6E9B
:101BE0008AEC0FF0120041A603D0E4EC0FF03BD0DA
:101BF000800E74EC0FF0450E1A6E100E1B6E8AEC00
:101C00000FF0C00E74EC0FF0B40E1A6E100E1B6EB7
:101C10008AEC0FF0C60E74EC0FF000018E51300FFD
:101C20005EEC0FF0C70E74EC0FF000019051300F16
:101C30005EEC0FF0C80E74EC0FF000019251300F03
:101C40005EEC0FF0C90E74EC0FF000019451300FF0
:101C50005EEC0FF0CA0E74EC0FF0AD0E1A6E100EA3
:101C60001B6E8AEC0FF041841200000E206E000EF5
:101C70001F6E205025E1040E1F5CD8B021D0D890F3
:101C80001F34D96E2034DA6E8E0ED926000EDA2279
:101C9000D8901F34E16E2034E26E860EE126000EED
:101CA000E222DE50E61804E1DE50E618D8B405D092
:101CB000000E1A6E000E196E12001F4A202AD9D784
:101CC000000E1A6E010E196E1200F29612D0000E5E
:101CD0001A6E0A0E196E000E1C6E0A0E1B6E000E96
:101CE0001E6E0A0E1D6E000E206E0A0E1F6EFBEC9D
:101CF0000CF084A213D0EBD7000E1A6E0A0E196EE8
:101D0000000E1C6E0A0E1B6E000E1E6E0A0E1D6E5D
:101D1000000E206E0A0E1F6EFBEC0CF084A2ECD7B6
:101D2000E4EC0FF0F2861200000E256E000E246E19
:101D300012D0000E1A6E0A0E196E000E1C6E0A0EDC
:101D40001B6E000E1E6E0A0E1D6E000E206E0A0E19
:101D50001F6EFBEC0CF02450226E2550236E244A9B
:101D6000252A23BEE6D7C90E225C050E2358D8A02B
:101D7000E0D7000E256E000E246E1200000E1F6EBE
:101D8000000E1E6E1B501C10D8B41CD0010E1D6E10
:101D900004D0D8901B361C361D2A1CAEFAD7D8901A
:101DA0001E361F361B50195C1C501A58D8A005D07F
:101DB0001B50195E1C501A5A1E80D8901C321B32C0
:101DC0001D2EEDD71EC019F01FC01AF01200B00E64
:101DD000F66E1F0EF76E000EF86E00EEA0F010EE1D
:101DE00018F00900F5CFEEFFE550E150FAE100EE02
:101DF00086F01A0EEE6AE806FDE1416A00EE27F071
:101E00001A0EEE6AE806FDE142904292000EF86E6C
:101E1000100EF76E0001CBEF09F022502310D8B45A
:101E200018D0010E246E04D0D89022362336242AEE
:101E300023AEFAD72250205C23502158D8A004D0DA
:101E40002250205E2350215AD89023322232242E51
:101E5000F1D720C020F021C021F01200405014E141
:101E6000030E3F5CD8B010D0D8903F34D96E4034C8
:101E7000DA6E860ED926000EDA22DE2803E1DE288D
:101E8000D8B402D03F4A402A41981200405014E191
:101E9000030E3F5CD8B010D0D8903F34D96E403498
:101EA000DA6E8E0ED926000EDA22DE2803E1DE2855
:101EB000D8B402D03F4A402A41981200196E8A8451
:101EC00083500F0B836E1950F00B8310836EF0EC70
:101ED0000FF083500F0B836E1938F00BF00B83104B
:101EE000836EF0EC0FF01200196E8A9483500F0B82
:101EF000836E1950F00B8310836EF0EC0FF083505B
:101F00000F0B836E1938F00BF00B8310836EF0EC1F
:101F10000FF012000AD01AC0F6FF1BC0F7FF08002E
:101F2000F5505EEC0FF01A4A1B2A1AC0F6FF1BC0D0
:101F3000F7FF0800F5500009D8B41200ECD7800E66
:101F400074EC0FF0340E1A6E100E1B6E8AEC0FF04C
:101F5000C00E74EC0FF0780E1A6E100E1B6E8AEC29
:101F60000FF01200800E74EC0FF0230E1A6E100E9C
:101F70001B6E8AEC0FF0C00E74EC0FF0120E1A6E8E
:101F8000100E1B6E8AEC0FF01200800E74EC0FF036
:101F9000560E1A6E100E1B6E8AEC0FF0C00E74EC0B
:101FA0000FF0670E1A6E100E1B6E8AEC0FF0120007
:101FB0003F0006005B004F0066006D007D000700DB
:101FC0007F00670040000000010E74EC0FF01A0E55
:101FD0001A6EF80EE82EFED71A2EFCD700D012008B
:101FE0008A8AC80E00D0E82EFDD78A9AC80E00D083
:101FF000E82EFDD71200192805E11A28D8A402D02E
:0A2000001B5012001950300F12009F
:020000040020DA
:08000000FFFFFFFFFFFFFFFF00
:020000040030CA
:0E000000FF06191EF38381FFFFC0FFE0FF40E3
:00000001FF
